:1000000078EF0FF00000000000EF00F000000000AB
:0A0010000000000000000000F3D71C
:0E001C00010111B102D08B9801D08B88120027
:0E002A00010111B102D08B9601D08B8612001D
:0E003800010111B102D08D9601D08D8612000B
:0E004600010111B102D0899401D08984120009
:0E005400010111B102D08B9C01D08B8C1200E7
:0E006200010111B102D08B9401D08B841200E9
:0E007000010111B102D08B9A01D08B8A1200CF
:0E007E00010111B102D08B9E01D08B8E1200B9
:0E008C00010111B102D08A9201D08A821200C5
:0E009A00010111B102D08D9401D08D841200AD
:0E00A800010111B102D08F9201D08F8212009F
:0E00B600010111B102D08F9401D08F8412008D
:0E00C400010111B102D08B9801D08B8812007F
:0E00D200010111B102D08B9601D08B86120075
:0E00E000010111B102D08A9401D08A8412006D
:0E00EE00010111B102D08B9801D08B88120055
:0E00FC00010111B102D08B9601D08B8612004B
:0E010A00010111B102D08F9001D08F80120040
:0E011800010111B102D08B9A01D08B8A120026
:0E012600010111B102D08B9801D08B8812001C
:0E013400010111B102D08B9601D08B86120012
:0E014200010111B102D08B9201D08B8212000C
:0E015000010111B102D08B9A01D08B8A1200EE
:0E015E00010111B102D08D9001D08D801200F0
:10016C000F0121B302D00000FBD711C11CFF1200FC
:0E017C00ACB202D00000FCD711C1ADFF1200E2
:0E018A00010111B102D08B9001D08B801200C8
:0E019800010111B102D0899001D089801200BE
:0E01A600010111B102D08A9001D08A801200AE
:0E01B400010111B102D08D9201D08D82120096
:0E01C200010111B102D0899801D08988120084
:0E01D000010111B102D08B9801D08B88120072
:0E01DE00010111B102D08B9601D08B86120068
:0E01EC00010111B102D0899201D08982120066
:0E01FA00010111B102D08B9C01D08B8C120040
:0E020800010111B102D08B9E01D08B8E12002D
:0E021600010111B102D08B9801D08B8812002B
:0E022400010111B102D08B9601D08B86120021
:1002320068B409D01F0E6614016E0150000A03E172
:0A024200010E006E01D0006A1200E8
:10024C00F250026EF29E0500FF6A0150FE6E0050E5
:08025C00FD6E02BEF28E1200DD
:10026400C7B409D01F0EC514016E0150000A03E182
:0A027400010E006E01D0006A1200B6
:0A027E00000E80B0010E006E1200A9
:0C028800000E0F0121B3010E006E1200E9
:0A029400000EA4BA010E006E120065
:0A029E00000E82B6010E006E120081
:0A02A800000E84B0010E006E12007B
:0A02B200000E82B0010E006E120073
:1002BC001DCF01F00F0122A302D02299228901C087
:0402CC0000F012002C
:0A02D000000E82B4010E006E120051
:1002DA0092C00DF193C00EF194C00FF195C010F1C8
:1002EA0001010B6B0C6B0C51120802E10B518E08C9
:1002FA0008E39ADF005201E004D001010B4B0C2BFA
:10030A00F2D70101120E0C5D02E18F0E0B5D03E3C1
:10031A007B0E006E26D0668066A022D00001925124
:10032A009311941195111BE001010D510E110F113A
:10033A0010110EE1DFC0E1FFE0C0E2FF050EE66E3C
:10034A00DDC000F0DEC001F07CDF010E006E09D0D6
:10035A00010E01010D5F000E0E5B0F5B105BDCD717
:04036A00006A120013
:0A036E00000E81B2010E006E1200B5
:0A037800000EACB2010E006E120080
:0A038200000E9EBA010E006E12007C
:10038C00AECF01F0ABA202D0AB98AB8801C000F0AD
:02039C0012004D
:0A039E00000E82B8010E006E12007E
:0A03A800000E80B8010E006E120076
:0A03B200000E80B2010E006E120072
:0A03BC00000E82B8010E006E120060
:0A03C600000E82B8010E006E120056
:0A03D000000E82B6010E006E12004E
:0A03DA00000E84B2010E006E120046
:0A03E400000E82B6010E006E12003A
:0A03EE00000E81B0010E006E120037
:0A03F800000E82B2010E006E12002A
:0A040200000E82BA010E006E120017
:0A040C00000E82BC010E006E12000B
:0A041600000E82BA010E006E120003
:0A042000000E82BE010E006E1200F5
:0A042A00000E82BE010E006E1200EB
:100434004EC00CF14FC00DF150C00EF151C00FF180
:100444009E96C5869EB61FD04E504F105010511028
:1004540019E001010C510D110E110F110CE1A0C096
:10046400E1FFA1C0E2FF030EE66E9EC000F09FC054
:1004740001F0EADE08D0010E01010C5F000E0D5BF5
:100484000E5B0F5BDFD70101C9CF0BF10051000AEE
:1004940002E1C58A01D0C59A9E96C5884EC00CF16A
:1004A4004FC00DF150C00EF151C00FF19EB61FD0D8
:1004B4004E504F105010511019E001010C510D1104
:1004C4000E110F110CE1A0C0E1FFA1C0E2FF030E69
:1004D400E66E9EC000F09FC001F0B6DE08D0010EAB
:1004E40001010C5F000E0D5B0E5B0F5BDFD70BC1D0
:0404F40000F0120002
:1004F8009E9600C1C9FF4EC00BF14FC00CF150C011
:100508000DF151C00EF1C7A421D04E504F1050101C
:1005180051101BE001010B510C110D110E110EE1D0
:10052800A0C0E1FFA1C0E2FF040EE66E9EC000F08D
:100538009FC001F087DE010E006E3AD0010E010166
:100548000B5F000E0C5B0D5B0E5BDDD74EC00BF135
:100558004FC00CF150C00DF151C00EF19EB621D024
:100568004E504F10501051101BE001010B510C114F
:100578000D110E110EE1A0C0E1FFA1C0E2FF040EB3
:10058800E66E9EC000F09FC001F05CDE010E006EBA
:100598000FD0010E01010B5F000E0C5B0D5B0E5BB3
:1005A800DDD7C5BC02D0006A03D0C584020E006E38
:0205B80012002F
:1005BA0092C00CF193C00DF194C00EF195C00FF1E9
:1005CA00A19A6686A1BA20D0000192519311941182
:1005DA00951119E001010C510D110E110F110CE1C9
:1005EA00DFC0E1FFE0C0E2FF030EE66EDDC000F00F
:1005FA00DEC001F026DE08D0010E01010C5F000EFC
:10060A000D5B0E5B0F5BDED701016ACF0BF1005168
:10061A00000A02E1668A01D0669AA19A668892C0A7
:10062A000CF193C00DF194C00EF195C00FF1A1BA6F
:10063A0020D00001925193119411951119E00101F2
:10064A000C510D110E110F110CE1DFC0E1FFE0C0DA
:10065A00E2FF030EE66EDDC000F0DEC001F0F1DD60
:10066A0008D0010E01010C5F000E0D5B0E5B0F5BE3
:08067A00DED70BC100F01200F5
:0A068200000E86B2010E006E120099
:0A068C00000E82B6010E006E12008F
:0A069600000E82B8010E006E120083
:1006A00092C00BF193C00CF194C00DF195C00EF106
:1006B000668266A220D00001925193119411951187
:1006C00019E001010B510C110D110E110CE1DFC0ED
:1006D000E1FFE0C0E2FF060EE66EDDC000F0DEC026
:1006E00001F0B4DD08D0010E01010B5F000E0C5BC0
:0806F0000D5B0E5BDED712006A
:0406F8006684120002
:1006FC004EC00DF14FC00EF150C00FF151C010F1B2
:10070C0001010B6B0C6B0C51120802E10B518E08A2
:10071C0008E3A2DD005201E004D001010B4B0C2BCD
:10072C00F2D70101120E0C5D02E18F0E0B5D03E39B
:10073C007B0E006E24D0C580C5A020D04E504F102B
:10074C00501051101AE00D510E110F1110110EE135
:10075C00A0C0E1FFA1C0E2FF050EE66E9EC000F056
:10076C009FC001F06DDD010E006E09D0010E01017C
:10077C000D5F000E0E5B0F5B105BDED7006A120084
:10078C00A19A00C16AFF92C00BF193C00CF194C006
:10079C000DF195C00EF168A422D000019251931175
:1007AC00941195111BE001010B510C110D110E113F
:1007BC000EE1DFC0E1FFE0C0E2FF040EE66EDDC03B
:1007CC0000F0DEC001F03CDD010E006E3BD0010EEE
:1007DC0001010B5F000E0C5B0D5B0E5BDCD792C056
:1007EC000BF193C00CF194C00DF195C00EF1A1BAB0
:1007FC0022D0000192519311941195111BE001012B
:10080C000B510C110D110E110EE1DFC0E1FFE0C018
:10081C00E2FF040EE66EDDC000F0DEC001F010DD7C
:10082C00010E006E0FD0010E01010B5F000E0C5B70
:10083C000D5B0E5BDCD766BC02D0006A03D066840D
:06084C00020E006E120016
:100852004EC00BF14FC00CF150C00DF151C00EF162
:10086200C582C5A21FD04E504F105010511019E032
:1008720001010B510C110D110E110CE1A0C0E1FF91
:10088200A1C0E2FF060EE66E9EC000F09FC001F01E
:10089200DCDC08D0010E01010B5F000E0C5B0D5B6E
:0608A2000E5BDFD712001F
:0408A800C5841200F1
:0A08AC00000E80B4010E006E120071
:0A08B600000E84B6010E006E120061
:0A08C000000E84B4010E006E120059
:0A08CA00000E82BC010E006E120049
:0A08D400000E82B6010E006E120045
:0A08DE00000E82B8010E006E120039
:0A08E800000E86B0010E006E120033
:0A08F200000E81B4010E006E12002A
:0A08FC00000E86B4010E006E12001B
:0A090600000E82B6010E006E120012
:0A091000000E82B8010E006E120006
:0A091A00000E82BA010E006E1200FA
:100924000101016B026BE1C000F0E2C001F08CDC5C
:1009340000C001F1000E0101026F01C100F002C10B
:0409440001F01200AC
:100948000101096B0A6B02C107F103C108F101C17A
:1009580000F0003600900080C2C0E1FFC3C0E2FF93
:1009680000C0E6FFC0C000F0C1C001F06BDC005061
:1009780001010913000E0A13010E045F000E055B46
:100988000451051115E0CFC0E1FFD0C0E2FF010E10
:10099800E66ECDC000F0CEC001F054DC07C1E1FF27
:1009A80008C1E2FF00C0E6FF0101074B082BE4D7AE
:1009B800CFC0E1FFD0C0E2FFE66ACDC000F0CEC0F4
:1009C80001F040DC07C1E1FF08C1E2FF00C0E6FF1B
:1009D80001010651000A05E1C4C000F0C5C001F0DC
:1009E80031DC01010651010A05E1C8C000F0C9C0A7
:0E09F80001F028DC09C100F00AC101F0120074
:100A06000101096B0A6B02C107F103C108F101C1BB
:100A160000F000360090C2C0E1FFC3C0E2FF00C094
:100A2600E6FFC0C000F0C1C001F00DDC00500101BE
:100A36000913000E0A1304C100F005C101F0010EEE
:100A4600045F000E055B0050011018E0C2C0E1FF14
:100A5600C3C0E2FF07C1E9FF08C1EAFFEECFE6FF28
:100A6600C0C000F0C1C001F026EC01F00050010149
:100A76000913000E0A13074B082BDDD70651000A8F
:100A860006E1C4C000F0C5C001F026EC01F001018A
:100A96000651010A06E1C8C000F0C9C001F026EC03
:0C0AA60001F009C100F00AC101F01200CB
:100AB200640E00019A6F020E9B6F000E9C6F000E77
:100AC2009D6FFC0EB66F060EB76F000EB86F000E6C
:100AD200B96F520EBA6F080EBB6F000EBC6F000EDC
:100AE200BD6F340EAE6F040EAF6F000EB06F010E0D
:100AF200B16FF80EE56F040EE66F000EE76F010EA0
:100B0200E86FA80EB26F080EB36F000EB46F000E3E
:100B1200B56F949894968B988B9694889486C79E7A
:080B2200C79C380EC66E1200DC
:100B2A00086A096A100E0C6E013408360936045038
:100B3A00085E0550D8A0053C095ED8B007D004501D
:100B4A0008260550D8B0053C0926D890003601364B
:060B5A000C2EEAD7120088
:100B6000FAC0FBF0DFDECCC001F1FB0E026F000E1D
:100B7000036F010E046F000E056F010E066F43DF59
:100B8000CCC001F1FC0E0101026F000E036F010EDB
:100B9000046F000E056F066BD7DEFCC000F012007C
:100BA0006C0E0001A66F010EA76F110EA86F010E4B
:100BB000A96FBC0EAA6F020EAB6F000EAC6F000ED9
:100BC000AD6F940ED56F020ED66F000ED76F000E6C
:100BD000D86F880ED16F020ED26F000ED36F000E49
:100BE000D46F0F01218B900E226F98849892A4AA43
:0A0BF00003D01DCF00F0FBD7120068
:100BFA00FAC0FBF092DECCC001F1FB0E026F000ED0
:100C0A00036F010E046F000E056F010E066FF6DE0C
:100C1A00CCC001F1FC0E0101026F000E036F020E3F
:100C2A00046F000E056F066B8ADEFDC0FEF0000E33
:100C3A000001FF6FFEC001F0006A00C0FEF001C0B3
:100C4A00FFF0FC510012000E011200C0FEF001C0BC
:040C5A00FFF0120095
:100C5E007C0E0001A66F010EA76F110EA86F010E7C
:100C6E00A96F8C0EAA6F030EAB6F000EAC6F000E49
:100C7E00AD6F820ED56F030ED66F000ED76F000EBE
:100C8E00D86F780ED16F030ED26F000ED36F000E99
:100C9E00D46FAC8A900EAB6E948E949C9EAA03D0A9
:080CAE00AECF00F0FBD71200ED
:100CB600FAC0FCF0FBC0FDF032DECCC001F1FC0E48
:100CC600026F000E036F020E046F000E056F066BB7
:040CD60097DE120093
:100CDA0021D0CF0EAF6EAC94BDDF6BD0670EAF6E76
:100CEA00AC94B8DF66D0CF0EAF6EAC84B3DF61D000
:100CFA00670EAF6EAC84AEDF5CD0440EAF6EAC84D0
:100D0A00A9DF57D0220EAF6EAC84A4DF52D0060EF4
:100D1A00006E58D00001000E006EF61908E100506E
:100D2A00F51905E1120EF41902E1F351C00AD1E0F6
:100D3A00000E006EF61908E10050F51905E1250EBE
:100D4A00F41902E1F351800AC9E0000E006EF619A7
:100D5A0008E10050F51905E14B0EF41902E1F351CF
:100D6A00000AC1E0000E006EF61908E10050F519FC
:100D7A0005E1960EF41902E1F351000AB9E0000EFA
:100D8A00006EF61908E10050F51905E1E10EF419B3
:100D9A0002E1F351000AB1E0F651000A08E1F55107
:100DAA00010A05E1F451C20A02E1F351000AAAE07C
:100DBA00AED77C0EA26F010EA36F110EA46F010EA7
:060DCA00A56F006A120093
:100DD00021D0CF0EAF6EAC9442DF6BD0670EAF6EFA
:100DE000AC943DDF66D0CF0EAF6EAC8438DF61D0FF
:100DF000670EAF6EAC8433DF5CD0440EAF6EAC8454
:100E00002EDF57D0220EAF6EAC8429DF52D0060EF3
:100E1000006E58D00001000E006EF61908E1005077
:100E2000F51905E1120EF41902E1F351C00AD1E0FF
:100E3000000E006EF61908E10050F51905E1250EC7
:100E4000F41902E1F351800AC9E0000E006EF619B0
:100E500008E10050F51905E14B0EF41902E1F351D8
:100E6000000AC1E0000E006EF61908E10050F51905
:100E700005E1960EF41902E1F351000AB9E0000E03
:100E8000006EF61908E10050F51905E1E10EF419BC
:100E900002E1F351000AB1E0F651000A08E1F55110
:100EA000010A05E1F451C20A02E1F351000AAAE085
:100EB000AED77C0EA26F010EA36F110EA46F010EB0
:060EC000A56F006A12009C
:100EC60038D00F0120870D0E1F6F040E1E6F21856F
:100ED60064DE7ED00F012087060E1F6F820E1E6F06
:100EE60021855BDE75D00F012087030E1F6F400E34
:100EF6001E6F218552DE6CD00F012087010E1F6FF9
:100F0600A00E1E6F218549DE63D00F012087010EDA
:100F16001F6F150E1E6F218540DE5AD00F012087E8
:100F26001F6B8A0E1E6F218538DE52D0060E006EAC
:100F360059D0000E006E0001F61908E10050F519AF
:100F460005E1120EF41902E1F351C00ABAE0000EEF
:100F5600006EF61908E10050F51905E1250EF419A1
:100F660002E1F351800AB6E0000E006EF61908E1C0
:100F76000050F51905E14B0EF41902E1F351000A90
:100F8600B2E0000E006EF61908E10050F51905E111
:100F9600960EF41902E1F351000AAEE0000E006E5F
:100FA600F61908E10050F51905E1E10EF41902E120
:100FB600F351000AAAE0F651000A08E1F551010AC8
:100FC60005E1F451C20A02E1F351000AA7E0AED7E7
:100FD60000016C0EA26F010EA36F110EA46F010E1D
:060FE600A56F006A120075
:100FEC00A4C0E1FFA5C0E2FFF3C0E9FFF4C0EAFF33
:100FFC00EECFE6FFA2C000F0A3C001F026EC01F09A
:04100C00006A120064
:1010100021D0CF0EAF6EAC9422DE6BD0670EAF6ED8
:10102000AC941DDE66D0CF0EAF6EAC8418DE61D0FE
:10103000670EAF6EAC8413DE5CD0440EAF6EAC8432
:101040000EDE57D0220EAF6EAC8409DE52D0060EF3
:10105000006E58D00001000E006EF61908E1005035
:10106000F51905E1120EF41902E1F351C00AD1E0BD
:10107000000E006EF61908E10050F51905E1250E85
:10108000F41902E1F351800AC9E0000E006EF6196E
:1010900008E10050F51905E14B0EF41902E1F35196
:1010A000000AC1E0000E006EF61908E10050F519C3
:1010B00005E1960EF41902E1F351000AB9E0000EC1
:1010C000006EF61908E10050F51905E1E10EF4197A
:1010D00002E1F351000AB1E0F651000A08E1F551CE
:1010E000010A05E1F451C20A02E1F351000AAAE043
:1010F000AED77C0EA26F010EA36F110EA46F010E6E
:06110000A56F006A120059
:10110600F3C0F6F0FF0E0001F415F76F000EF415AC
:10111600036EF551FF0B046E04C000F0016A00C0B7
:10112600F8F092EC04F0CCC001F1F60E026F000E5E
:10113600036F030E046F000E056F066B61DC120071
:101146005DD00001F4B102D0929401D092840F01D7
:1011560025957AD00001F4B102D0969601D09686F4
:1011660073D00001F4B102D0969401D096846CD06D
:101176000001F4B102D0949601D0948665D00001A6
:10118600F4B102D0949801D094885ED00001F4B1F5
:1011960002D0949A01D0948A57D00001F4B102D0BB
:1011A600989001D0988050D00001F4B102D0939469
:1011B60001D0938449D00001F4B102D0989401D0B3
:1011C60098840F01239540D00001F4B102D0989283
:1011D60001D098820F01239337D00001F4B102D0D9
:1011E600949601D0948630D00001F4B102D0949840
:1011F60001D0948829D0010E006E28D00001F35149
:10120600000A9FE0F351010AA5E0F351020AA9E0A2
:10121600F351030AADE0F351040AB1E0F351050AB4
:10122600B5E0F351060AB9E0F351070ABDE0F35100
:10123600080AC1E0F351090AC7E0F3510A0ACDE0F2
:0E124600F3510B0AD1E0D7D7000E006E120054
:1012540059D00001F4B102D0929201D092820F01D0
:10126400259376D00001F4B102D0929801D09288EF
:101274006FD00001F4B102D0969201D0968268D06A
:101284000001F4B102D0949601D0948661D000019B
:10129400F4B102D0949801D094885AD00001F4B1EA
:1012A40002D0949A01D0948A53D00001F4B102D0B0
:1012B400949401D094844CD00001F4B102D0939260
:1012C40001D0938245D00001F4B102D0949E01D0A4
:1012D400948E3ED00001F4B102D0949C01D0948C41
:1012E40037D00001F4B102D0949601D0948630D066
:1012F4000001F4B102D0949801D0948829D0010E51
:10130400006E28D00001F351000AA3E0F351010A52
:10131400A9E0F351020AADE0F351030AB1E0F3513D
:10132400040AB5E0F351050AB9E0F351060ABDE039
:10133400F351070AC1E0F351080AC5E0F351090A61
:10134400C9E0F3510A0ACDE0F3510B0AD1E0D7D733
:06135400000E006E120005
:10135A0059D00001F4B102D0929001D092800F01CD
:10136A00259176D00001F4B102D0949001D09480F6
:10137A006FD00001F4B102D0969001D0968068D067
:10138A000001F4B102D0949601D0948661D0000194
:10139A00F4B102D0949801D094885AD00001F4B1E3
:1013AA0002D0949A01D0948A53D00001F4B102D0A9
:1013BA00949201D094824CD00001F4B102D093905F
:1013CA0001D0938045D00001F4B102D0949E01D09F
:1013DA00948E3ED00001F4B102D0949C01D0948C3A
:1013EA0037D00001F4B102D0949601D0948630D05F
:1013FA000001F4B102D0949801D0948829D0010E4A
:10140A00006E28D00001F351000AA3E0F351010A4B
:10141A00A9E0F351020AADE0F351030AB1E0F35136
:10142A00040AB5E0F351050AB9E0F351060ABDE032
:10143A00F351070AC1E0F351080AC5E0F351090A5A
:10144A00C9E0F3510A0ACDE0F3510B0AD1E0D7D72C
:06145A00000E006E1200FE
:10146000F3C0F6F0F4C0F7F0F5C0F8F00DD0A00E20
:10147000C86E59EC05F045D0280EC86E59EC05F041
:1014800040D0040E006E3FD0F6C0F6FFF7C0F7FF65
:10149000F8C0F8FF0900F5CF01F00900F5CF02F020
:1014A0000900F5CF03F00900F5CF04F00450000A5D
:1014B00008E10350010A05E10250860A02E10150E9
:1014C000A00AD5E0F6C0F6FFF7C0F7FFF8C0F8FFB6
:1014D0000900F5CF01F00900F5CF02F00900F5CFC2
:1014E00003F00900F5CF04F00450000A08E10350AE
:1014F000060A05E102501A0A02E10150800ABCE026
:08150000C0D7000E006E1200BE
:10150800F3C0F6F0F4C0F7F0F5C0F8F00DD0A00E77
:10151800C86E59EC05F045D0280EC86E59EC05F098
:1015280040D0040E006E3FD0F6C0F6FFF7C0F7FFBC
:10153800F8C0F8FF0900F5CF01F00900F5CF02F077
:101548000900F5CF03F00900F5CF04F00450000AB4
:1015580008E10350010A05E10250860A02E1015040
:10156800A00AD5E0F6C0F6FFF7C0F7FFF8C0F8FF0D
:101578000900F5CF01F00900F5CF02F00900F5CF19
:1015880003F00900F5CF04F00450000A08E1035005
:10159800060A05E102501A0A02E10150800ABCE07D
:0815A800C0D7000E006E120016
:1015B000F3C0F6F0F4C0F7F0F5C0F8F00DD0A00ECF
:1015C000C86E59EC05F045D0280EC86E59EC05F0F0
:1015D00040D0040E006E3FD0F6C0F6FFF7C0F7FF14
:1015E000F8C0F8FF0900F5CF01F00900F5CF02F0CF
:1015F0000900F5CF03F00900F5CF04F00450000A0C
:1016000008E10350010A05E10250860A02E1015097
:10161000A00AD5E0F6C0F6FFF7C0F7FFF8C0F8FF64
:101620000900F5CF01F00900F5CF02F00900F5CF70
:1016300003F00900F5CF04F00450000A08E103505C
:10164000060A05E102501A0A02E10150800ABCE0D4
:08165000C0D7000E006E12006D
:10165800040E0001FA6F900EFB6F5BEC06F00001C0
:10166800F36B0A0EF35D19E2060EFA6FFDEC05F056
:101678001F0E0014026E01C003F0000E0316000EC8
:10168800031802E1000E021802E1006A08D0350EC4
:101698000D6E0D2EFED7F32BE4D7010E006E12004F
:1016A800040E0001FA6F910EFB6F5BEC06F000016F
:1016B800F36B0A0EF35D19E2060EFA6FFDEC05F006
:1016C8001F0E0014026E01C003F0000E0316000E78
:1016D800031802E1100E021802E1006A08D0350E64
:1016E8000D6E0D2EFED7F32BE4D7010E006E1200FF
:0C16F800280E0001FA6FFDEC05F0120056
:10170400040E0001FA6F920EFB6F5BEC06F0000111
:10171400F36B0A0EF35D19E2060EFA6FFDEC05F0A9
:101724001F0E0014026E01C003F0000E0316000E1B
:10173400031802E1180E021802E1006A08D0350EFF
:101744000D6E0D2EFED7F32BE4D7010E006E1200A2
:10175400040E0001FA6F810EFB6F5BEC06F00001D2
:10176400F36B0A0EF35D18E2FA6BB0EC05F0100EA1
:101774000014016E000E000B026E000E021802E14E
:10178400000E011802E0006A09D0350E0D6E0D2E10
:0E179400FED70001F32BE5D7010E006E120008
:1017A2000001F76B050EF75D0AE2F751F525E16ED0
:1017B200000EF621E26E200EE66EF72BF3D7F751FC
:1017C200F525E16E000EF621E26EE66AF707F751A3
:1017D200F525F86F000EF621F96F0A0E046E000E61
:1017E200056EF3C000F0F4C001F095EC05F008C0FE
:1017F20000F009C001F0300E0026F8C0E1FFF9C088
:10180200E2FF00C0E6FF0A0E046E000E056EF3C092
:1018120000F0F4C001F095EC05F000C0F3F001C057
:10182200F4F0000E011802E1000E001801E102D0EE
:06183200F707CDD71200FC
:10183800F3C0F6FFF4C0F7FFF5C0F8FF0900F5CFD5
:10184800E1F00900F5CFE2F00900F5CFE3F0090077
:10185800F5CFE4F0040E0001F325F66E000EF42136
:10186800F76E000EF521F86E0900F5CFC4F00900F7
:10187800F5CFC5F00900F5CFC6F00900F5CFC7F0E0
:10188800080EF325F66E000EF421F76E000EF52112
:10189800F86E0900F5CFC8F00900F5CFC9F00900C6
:1018A800F5CFCAF00900F5CFCBF00C0EF325F66E94
:1018B800000EF421F76E000EF521F86E0900F5CF41
:1018C800C0F00900F5CFC1F00900F5CFC2F009005A
:1018D800F5CFC3F0100EF325F66E000EF421F76E67
:1018E800000EF521F86E0900F5CFCDF00900F5CF0F
:1018F800CEF00900F5CFCFF00900F5CFD0F01200F7
:10190800300E0001F325006E000EF421016E000E6A
:10191800F521026E1C0E0024F66E000E0120F76EF3
:10192800000E0220F86E0900F5CFD9F00900F5CFB6
:10193800DAF00900F5CFDBF00900F5CFDCF0120092
:101948001BD0EAC0F3F0EBC0F4F0ECC0F5F084DD96
:101958001ED0EAC0F3F0EBC0F4F0ECC0F5F024DEE2
:1019680016D0EAC0F3F0EBC0F4F0ECC0F5F0C8DD37
:101978000ED0010E006E0BD00001E951000AE1E023
:10198800E951010AE6E0E951020AEBE0F2D7120058
:10199800E9C0ECF0EAC0EDF00D0E0001EE6F0A0EA2
:1019A800EF6F3AD0ECC0F3F0EDC0F4F0F6EC07F0CE
:1019B8003ED0ECC0E9FFEDC0EAFFEE520AE0ECC011
:1019C800F3F0EDC0F4F0F6EC07F00001EC4BED2B72
:1019D800F0D72DD0ECC0E9FFEDC0EAFFEE520AE0E7
:1019E800ECC0F3F0EDC0F4F0F6EC07F00001EC4BBE
:1019F800ED2BF0D70001EE0EF36F000EF46FF6EC4E
:101A080007F0EF0E0001F36F000EF46FF6EC07F02D
:101A18000ED0060E006E0CD00001EB51000AC2E099
:101A2800EB51010AC6E0EB51020AD4E0F2D7006A92
:021A380012009A
:101A3A000001EF6BF06BE9C0F1F0EAC0F2F0800E42
:101A4A00EA19006E800E005C02E1000EE95D0BE20D
:101A5A00010EEF6F000EF06FE9510008F16FEAC056
:101A6A00F2F0000EF257F1C0F3F0F2C0F4F0EBC05E
:101A7A00F5F0ECC0F6F090DE060EED6F000EEE6F9C
:101A8A00000E006EEE51005C02E1ED51000819E211
:101A9A00ED51EB25E16EEE51EC21E26E010EED5DAA
:101AAA00006E000EEE59016E0050EB25E96E0150F2
:101ABA00EC21EA6EEECFE6FF010EED5F000EEE5B63
:101ACA00DFD7EBC0E1FFECC0E2FF200EE66EEF517C
:101ADA00F0111AE0ED6BEE6BED51EB25E96EEE516C
:101AEA00EC21EA6EEE50200A03E1ED4BEE2BF4D71F
:101AFA00010EED5F000EEE5BED51EB25E16EEE514E
:0A1B0A00EC21E26E2D0EE66E1200D3
:101B140017D0EAC0F3F0EBC0F4F01DDC1CD0EAC02F
:101B2400F3F0EBC0F4F02AEC09F015D0EAC0F3F0BE
:101B3400EBC0F4F0A3EC08F00ED0010E006E0BD055
:101B44000001E951000AE5E0E951010AE8E0E95140
:081B5400020AECE0F2D71200D6
:0A1B5C0098C000F099C001F01200DB
:101B66002FD0EAC0F3F0EBC0F4F0ECC0F5F0EDC016
:101B7600F6F0E8EC06F032D0EAC0F3F0EBC0F4F091
:101B8600ECC0F5F0EDC0F6F06DEC06F027D0EAC03B
:101B9600F3F0EBC0F4F0ECC0F5F0EDC0F6F063EC5A
:101BA60007F01CD0EAC0F3F0EBC0F4F0ECC0F5F09F
:101BB600EDC0F6F008EC08F011D0010E006E0ED064
:101BC6000001E951000ACDE0E951010AD5E0E951E9
:0E1BD600020ADDE0E951100AE5E0EFD7120047
:101BE40089DD0150AD0A02E1020E00180AE082DD2F
:101BF4000150AD0A02E1010E001803E0010E006E6F
:101C040075D028DD0050010A03E1010E006E6ED08C
:101C1400F36B050EF46F000EF56F83EC08F0020E03
:101C24000001F36F010EF46F000EF56F83EC08F002
:101C34001C0E0001F36F650EF46F000EF56F83EC5C
:101C440008F0140E0001F36F000EF46F050EF56F2B
:101C540083EC08F027DD0050010A03E1010E006E59
:101C640045D0140EF36F000EF46F060EF56F83EC7F
:101C740008F046DD0050010A03E1010E006E36D083
:101C84000C0EF36F000EF46FE10EF56F83EC08F0A9
:101C94000E0E0001F36FFF0EF46F100EF56F83EC60
:101CA40008F0200E0001F36FD00EF46F070EF56FED
:101CB40083EC08F0220E0001F36F080EF46F500E4F
:101CC400F56F83EC08F0240E0001F36F410EF46FFE
:101CD400A00EF56F83EC08F0260E0001F36FD40E0E
:0E1CE400F46F450EF56F83EC08F0006A1200F5
:101CF200EFC0CCF0ECC0F3F0EDC0F4F0EEC0F5F0C4
:101D02009ADDE9C0F3F0EAC0F4F0EBC0F5F0FBDDD8
:021D12001200BD
:101D14001FDD0050010A03E1010E006E51D0080ED0
:101D24000001FA6FFDEC05F000C0E9F001C0EAF033
:101D3400FF0E00167F0E0116005001103FE00D0E3D
:101D4400026EE9C000F0EAC001F0025005E0013281
:101D54000032019EFF0FFAD7030E0014016E01C07A
:101D6400EBF00150000A27E10001E9C098F0EAC055
:101D740099F099339833999F99339833999FFF0E2B
:101D84009817070E99170A0EFA6FFDEC05F000C0BC
:101D940096F001C097F097339633979F9733963315
:101DA400979F97339633979F97339633979FFF0E5A
:101DB4009617070E9717EBC000F002D0010E006EC5
:021DC40012000B
:101DC6000900F5CFE6FF0006FBE10106F9E1120086
:101DD6000001E96B070EEA6F010EEB6F98DE00015A
:101DE600E96BF70EEA6F1F0EEB6F000EEC6FA9DDC5
:101DF600100E0001E96F800EEA6F250EEB6F000EE4
:101E0600EC6FED6FADDE380E0001E96F000EEA6F84
:101E1600020EEB6FBEDD090E0B6E1E0E0C6EE40E8F
:101E26000D6E0D2EFED70C2EFCD70B2EFAD700000A
:021E3600120098
:101E3800830E0001E96F1F0EEA6F000EEB6FE30ED1
:101E4800EC6F1F0EED6F000EEE6F4C0EEF6F4DDF57
:101E5800C5DE0050000A09E1150E0001E96F000E09
:101E6800EA6F020EEB6F94DD08D0520E0001E96FA5
:0C1E7800000EEA6F020EEB6F8BDD120013
:101E840047DF6ADE00C0BEF001C0BFF000C0E9F069
:101E940001C0EAF06F0E0001EB6F000EEC6FCBDDBA
:101EA400870EE96F000EEA6F010EEB6F73DD6F0EA4
:101EB4000001E96F000EEA6F010EEB6F6BDD830E1C
:101EC4000001E96F000EEA6F020EEB6F63DD190E7D
:101ED4000B6E5A0E0C6EB10E0D6E0D2EFED70C2E1F
:0C1EE400FCD70B2EFAD700000000120003
:0E1EF000FEEC0FF070DFA0DFC5DFFED7FFD7DE
:101FFC0010EE15F0850E006E010E016EFE0EF66EE3
:0E200C001E0EF76E000EF86EE3EC0EF01200E2
:101EFE00202D2D2D2044657669636520696E6974E9
:101F0E00207375636365737366756C6C79202D2D04
:031F1E002D200073
:101F2100202D2D2D2053797374656D20496E6974B0
:061F3100202D2D2D2000E3
:041F370000000000A6
:101F3B00202D2D2D202044657669636520696E69FF
:0D1F4B0074206572726F72202D2D2D200004
:101F58000000000000000000000000000000000079
:041F68000000000075
:041F6C00206D6D0077
:0B1F700044697374616E6365203D00DE
:041F7B000000000062
:021F7F00000060
:021F810000005E
:101F8300980111018A0111015E011101340111014E
:101F9300260111015001110142011101A601110194
:101FA30008021101FA0111012402110116021101A3
:101FB3007E020000B2020000A80200009E020000A0
:101FC3009E03000002040000F8030000EE0300007B
:101FD300200400000C040000E4030000BC03000024
:101FE300FC060000A808000052080000F8040001E5
:041FF30034040001B1
:041FF700A0860100BF
:020000040030CA
:0E00000015137F7CF98B91FFFFC0FFE0FF40DE
:00000001FF
